{
  "_format": "hh-sol-artifact-1",
  "contractName": "TokenVault",
  "sourceName": "contracts/bridge/TokenVault.sol",
  "abi": [
    {
      "anonymous": false,
      "inputs": [
        {
          "indexed": true,
          "internalType": "uint256",
          "name": "srcChainId",
          "type": "uint256"
        },
        {
          "indexed": true,
          "internalType": "address",
          "name": "canonicalToken",
          "type": "address"
        },
        {
          "indexed": true,
          "internalType": "address",
          "name": "bridgedToken",
          "type": "address"
        },
        {
          "indexed": false,
          "internalType": "string",
          "name": "canonicalTokenSymbol",
          "type": "string"
        },
        {
          "indexed": false,
          "internalType": "string",
          "name": "canonicalTokenName",
          "type": "string"
        },
        {
          "indexed": false,
          "internalType": "uint8",
          "name": "canonicalTokenDecimal",
          "type": "uint8"
        }
      ],
      "name": "BridgedERC20Deployed",
      "type": "event"
    },
    {
      "anonymous": false,
      "inputs": [
        {
          "indexed": true,
          "internalType": "bytes32",
          "name": "msgHash",
          "type": "bytes32"
        },
        {
          "indexed": true,
          "internalType": "address",
          "name": "from",
          "type": "address"
        },
        {
          "indexed": true,
          "internalType": "address",
          "name": "to",
          "type": "address"
        },
        {
          "indexed": false,
          "internalType": "uint256",
          "name": "srcChainId",
          "type": "uint256"
        },
        {
          "indexed": false,
          "internalType": "address",
          "name": "token",
          "type": "address"
        },
        {
          "indexed": false,
          "internalType": "uint256",
          "name": "amount",
          "type": "uint256"
        }
      ],
      "name": "ERC20Received",
      "type": "event"
    },
    {
      "anonymous": false,
      "inputs": [
        {
          "indexed": true,
          "internalType": "bytes32",
          "name": "msgHash",
          "type": "bytes32"
        },
        {
          "indexed": true,
          "internalType": "address",
          "name": "from",
          "type": "address"
        },
        {
          "indexed": false,
          "internalType": "address",
          "name": "token",
          "type": "address"
        },
        {
          "indexed": false,
          "internalType": "uint256",
          "name": "amount",
          "type": "uint256"
        }
      ],
      "name": "ERC20Released",
      "type": "event"
    },
    {
      "anonymous": false,
      "inputs": [
        {
          "indexed": true,
          "internalType": "bytes32",
          "name": "msgHash",
          "type": "bytes32"
        },
        {
          "indexed": true,
          "internalType": "address",
          "name": "from",
          "type": "address"
        },
        {
          "indexed": true,
          "internalType": "address",
          "name": "to",
          "type": "address"
        },
        {
          "indexed": false,
          "internalType": "uint256",
          "name": "destChainId",
          "type": "uint256"
        },
        {
          "indexed": false,
          "internalType": "address",
          "name": "token",
          "type": "address"
        },
        {
          "indexed": false,
          "internalType": "uint256",
          "name": "amount",
          "type": "uint256"
        }
      ],
      "name": "ERC20Sent",
      "type": "event"
    },
    {
      "anonymous": false,
      "inputs": [
        {
          "indexed": true,
          "internalType": "bytes32",
          "name": "msgHash",
          "type": "bytes32"
        },
        {
          "indexed": true,
          "internalType": "address",
          "name": "from",
          "type": "address"
        },
        {
          "indexed": true,
          "internalType": "address",
          "name": "to",
          "type": "address"
        },
        {
          "indexed": false,
          "internalType": "uint256",
          "name": "destChainId",
          "type": "uint256"
        },
        {
          "indexed": false,
          "internalType": "uint256",
          "name": "amount",
          "type": "uint256"
        }
      ],
      "name": "EtherSent",
      "type": "event"
    },
    {
      "anonymous": false,
      "inputs": [
        {
          "indexed": false,
          "internalType": "uint8",
          "name": "version",
          "type": "uint8"
        }
      ],
      "name": "Initialized",
      "type": "event"
    },
    {
      "anonymous": false,
      "inputs": [
        {
          "indexed": true,
          "internalType": "address",
          "name": "previousOwner",
          "type": "address"
        },
        {
          "indexed": true,
          "internalType": "address",
          "name": "newOwner",
          "type": "address"
        }
      ],
      "name": "OwnershipTransferred",
      "type": "event"
    },
    {
      "inputs": [],
      "name": "addressManager",
      "outputs": [
        {
          "internalType": "address",
          "name": "",
          "type": "address"
        }
      ],
      "stateMutability": "view",
      "type": "function"
    },
    {
      "inputs": [
        {
          "internalType": "address",
          "name": "",
          "type": "address"
        }
      ],
      "name": "bridgedToCanonical",
      "outputs": [
        {
          "internalType": "uint256",
          "name": "chainId",
          "type": "uint256"
        },
        {
          "internalType": "address",
          "name": "addr",
          "type": "address"
        },
        {
          "internalType": "uint8",
          "name": "decimals",
          "type": "uint8"
        },
        {
          "internalType": "string",
          "name": "symbol",
          "type": "string"
        },
        {
          "internalType": "string",
          "name": "name",
          "type": "string"
        }
      ],
      "stateMutability": "view",
      "type": "function"
    },
    {
      "inputs": [
        {
          "internalType": "uint256",
          "name": "",
          "type": "uint256"
        },
        {
          "internalType": "address",
          "name": "",
          "type": "address"
        }
      ],
      "name": "canonicalToBridged",
      "outputs": [
        {
          "internalType": "address",
          "name": "",
          "type": "address"
        }
      ],
      "stateMutability": "view",
      "type": "function"
    },
    {
      "inputs": [
        {
          "internalType": "address",
          "name": "addressManager",
          "type": "address"
        }
      ],
      "name": "init",
      "outputs": [],
      "stateMutability": "nonpayable",
      "type": "function"
    },
    {
      "inputs": [
        {
          "internalType": "address",
          "name": "",
          "type": "address"
        }
      ],
      "name": "isBridgedToken",
      "outputs": [
        {
          "internalType": "bool",
          "name": "",
          "type": "bool"
        }
      ],
      "stateMutability": "view",
      "type": "function"
    },
    {
      "inputs": [
        {
          "internalType": "bytes32",
          "name": "",
          "type": "bytes32"
        }
      ],
      "name": "messageDeposits",
      "outputs": [
        {
          "internalType": "address",
          "name": "token",
          "type": "address"
        },
        {
          "internalType": "uint256",
          "name": "amount",
          "type": "uint256"
        }
      ],
      "stateMutability": "view",
      "type": "function"
    },
    {
      "inputs": [],
      "name": "owner",
      "outputs": [
        {
          "internalType": "address",
          "name": "",
          "type": "address"
        }
      ],
      "stateMutability": "view",
      "type": "function"
    },
    {
      "inputs": [
        {
          "components": [
            {
              "internalType": "uint256",
              "name": "chainId",
              "type": "uint256"
            },
            {
              "internalType": "address",
              "name": "addr",
              "type": "address"
            },
            {
              "internalType": "uint8",
              "name": "decimals",
              "type": "uint8"
            },
            {
              "internalType": "string",
              "name": "symbol",
              "type": "string"
            },
            {
              "internalType": "string",
              "name": "name",
              "type": "string"
            }
          ],
          "internalType": "struct TokenVault.CanonicalERC20",
          "name": "canonicalToken",
          "type": "tuple"
        },
        {
          "internalType": "address",
          "name": "from",
          "type": "address"
        },
        {
          "internalType": "address",
          "name": "to",
          "type": "address"
        },
        {
          "internalType": "uint256",
          "name": "amount",
          "type": "uint256"
        }
      ],
      "name": "receiveERC20",
      "outputs": [],
      "stateMutability": "nonpayable",
      "type": "function"
    },
    {
      "inputs": [
        {
          "components": [
            {
              "internalType": "uint256",
              "name": "id",
              "type": "uint256"
            },
            {
              "internalType": "address",
              "name": "sender",
              "type": "address"
            },
            {
              "internalType": "uint256",
              "name": "srcChainId",
              "type": "uint256"
            },
            {
              "internalType": "uint256",
              "name": "destChainId",
              "type": "uint256"
            },
            {
              "internalType": "address",
              "name": "owner",
              "type": "address"
            },
            {
              "internalType": "address",
              "name": "to",
              "type": "address"
            },
            {
              "internalType": "address",
              "name": "refundAddress",
              "type": "address"
            },
            {
              "internalType": "uint256",
              "name": "depositValue",
              "type": "uint256"
            },
            {
              "internalType": "uint256",
              "name": "callValue",
              "type": "uint256"
            },
            {
              "internalType": "uint256",
              "name": "processingFee",
              "type": "uint256"
            },
            {
              "internalType": "uint256",
              "name": "gasLimit",
              "type": "uint256"
            },
            {
              "internalType": "bytes",
              "name": "data",
              "type": "bytes"
            },
            {
              "internalType": "string",
              "name": "memo",
              "type": "string"
            }
          ],
          "internalType": "struct IBridge.Message",
          "name": "message",
          "type": "tuple"
        },
        {
          "internalType": "bytes",
          "name": "proof",
          "type": "bytes"
        }
      ],
      "name": "releaseERC20",
      "outputs": [],
      "stateMutability": "nonpayable",
      "type": "function"
    },
    {
      "inputs": [],
      "name": "renounceOwnership",
      "outputs": [],
      "stateMutability": "nonpayable",
      "type": "function"
    },
    {
      "inputs": [
        {
          "internalType": "string",
          "name": "name",
          "type": "string"
        },
        {
          "internalType": "bool",
          "name": "allowZeroAddress",
          "type": "bool"
        }
      ],
      "name": "resolve",
      "outputs": [
        {
          "internalType": "address payable",
          "name": "",
          "type": "address"
        }
      ],
      "stateMutability": "view",
      "type": "function"
    },
    {
      "inputs": [
        {
          "internalType": "uint256",
          "name": "chainId",
          "type": "uint256"
        },
        {
          "internalType": "string",
          "name": "name",
          "type": "string"
        },
        {
          "internalType": "bool",
          "name": "allowZeroAddress",
          "type": "bool"
        }
      ],
      "name": "resolve",
      "outputs": [
        {
          "internalType": "address payable",
          "name": "",
          "type": "address"
        }
      ],
      "stateMutability": "view",
      "type": "function"
    },
    {
      "inputs": [
        {
          "internalType": "uint256",
          "name": "destChainId",
          "type": "uint256"
        },
        {
          "internalType": "address",
          "name": "to",
          "type": "address"
        },
        {
          "internalType": "address",
          "name": "token",
          "type": "address"
        },
        {
          "internalType": "uint256",
          "name": "amount",
          "type": "uint256"
        },
        {
          "internalType": "uint256",
          "name": "gasLimit",
          "type": "uint256"
        },
        {
          "internalType": "uint256",
          "name": "processingFee",
          "type": "uint256"
        },
        {
          "internalType": "address",
          "name": "refundAddress",
          "type": "address"
        },
        {
          "internalType": "string",
          "name": "memo",
          "type": "string"
        }
      ],
      "name": "sendERC20",
      "outputs": [],
      "stateMutability": "payable",
      "type": "function"
    },
    {
      "inputs": [
        {
          "internalType": "uint256",
          "name": "destChainId",
          "type": "uint256"
        },
        {
          "internalType": "address",
          "name": "to",
          "type": "address"
        },
        {
          "internalType": "uint256",
          "name": "gasLimit",
          "type": "uint256"
        },
        {
          "internalType": "uint256",
          "name": "processingFee",
          "type": "uint256"
        },
        {
          "internalType": "address",
          "name": "refundAddress",
          "type": "address"
        },
        {
          "internalType": "string",
          "name": "memo",
          "type": "string"
        }
      ],
      "name": "sendEther",
      "outputs": [],
      "stateMutability": "payable",
      "type": "function"
    },
    {
      "inputs": [
        {
          "internalType": "address",
          "name": "newOwner",
          "type": "address"
        }
      ],
      "name": "transferOwnership",
      "outputs": [],
      "stateMutability": "nonpayable",
      "type": "function"
    }
  ],
  "bytecode": "0x608060405234801561001057600080fd5b50615b00806100206000396000f3fe6080604052600436106100e85760003560e01c8063715018a61161008a5780639aa8605c116100595780639aa8605c146102b0578063c287e578146102e1578063ee1490b214610321578063f2fde38b1461033457600080fd5b8063715018a6146101fe578063780b64f0146102135780638da5cb5b146102725780639754149b1461029057600080fd5b80631be2bfa7116100c65780631be2bfa71461016c57806339da33ba1461018c5780633ab76e9f1461019f57806367090ccf146101bd57600080fd5b80630c6fab82146100ed5780630ca4dffd1461010f57806319ab453c1461014c575b600080fd5b3480156100f957600080fd5b5061010d610108366004612adb565b610354565b005b34801561011b57600080fd5b5061012f61012a366004612c36565b61064a565b6040516001600160a01b0390911681526020015b60405180910390f35b34801561015857600080fd5b5061010d610167366004612c88565b61065e565b34801561017857600080fd5b5061012f610187366004612ca5565b6107d8565b61010d61019a366004612d00565b6107ed565b3480156101ab57600080fd5b506097546001600160a01b031661012f565b3480156101c957600080fd5b5061012f6101d8366004612d7e565b60cb6020908152600092835260408084209091529082529020546001600160a01b031681565b34801561020a57600080fd5b5061010d610b68565b34801561021f57600080fd5b5061025361022e366004612da3565b60cc60205260009081526040902080546001909101546001600160a01b039091169082565b604080516001600160a01b039093168352602083019190915201610143565b34801561027e57600080fd5b506065546001600160a01b031661012f565b34801561029c57600080fd5b5061010d6102ab366004612dbc565b610b7c565b3480156102bc57600080fd5b506102d06102cb366004612c88565b61101a565b604051610143959493929190612eb4565b3480156102ed57600080fd5b506103116102fc366004612c88565b60c96020526000908152604090205460ff1681565b6040519015158152602001610143565b61010d61032f366004612f03565b61117c565b34801561034057600080fd5b5061010d61034f366004612c88565b611be3565b61035c611c73565b6040518060400160405280600681526020017f627269646765000000000000000000000000000000000000000000000000000081525061039d81600061064a565b6001600160a01b0316336001600160a01b0316146104025760405162461bcd60e51b815260206004820152600960248201527f41523a64656e696564000000000000000000000000000000000000000000000060448201526064015b60405180910390fd5b6000336001600160a01b031663d0496d6a6040518163ffffffff1660e01b815260040160606040518083038186803b15801561043d57600080fd5b505afa158015610451573d6000803e3d6000fd5b505050506040513d601f19601f820116820180604052508101906104759190612f9f565b90506104bc81604001516040518060400160405280600b81526020017f746f6b656e5f7661756c7400000000000000000000000000000000000000000081525060006107d8565b6001600160a01b031681602001516001600160a01b0316146105205760405162461bcd60e51b815260206004820152600860248201527f563a73656e64657200000000000000000000000000000000000000000000000060448201526064016103f9565b600086354614156105565761053b6040880160208901612c88565b90506105516001600160a01b0382168686611ccd565b6105df565b61055f87611d76565b6040517f42e91bb30000000000000000000000000000000000000000000000000000000081526001600160a01b03878116600483015260248201879052919250908216906342e91bb390604401600060405180830381600087803b1580156105c657600080fd5b505af11580156105da573d6000803e3d6000fd5b505050505b815160408084015181519081526001600160a01b0384811660208301529181018790528188169291891691907fe5da926519fc972010fe65b35c1e3339e6dc72b35ffaec203999c2a2a2593eac9060600160405180910390a450505061064460018055565b50505050565b6000610657468484611ddb565b9392505050565b600054610100900460ff161580801561067e5750600054600160ff909116105b806106985750303b158015610698575060005460ff166001145b61070a5760405162461bcd60e51b815260206004820152602e60248201527f496e697469616c697a61626c653a20636f6e747261637420697320616c72656160448201527f647920696e697469616c697a656400000000000000000000000000000000000060648201526084016103f9565b600080547fffffffffffffffffffffffffffffffffffffffffffffffffffffffffffffff00166001179055801561076857600080547fffffffffffffffffffffffffffffffffffffffffffffffffffffffffffff00ff166101001790555b61077182611efd565b80156107d457600080547fffffffffffffffffffffffffffffffffffffffffffffffffffffffffffff00ff169055604051600181527f7f26b83ff96e1f2b6a682f133852f6798a09c465da95921460cefb38474024989060200160405180910390a15b5050565b60006107e5848484611ddb565b949350505050565b6107f5611c73565b6001600160a01b0385161580159061085f5750610849866040518060400160405280600b81526020017f746f6b656e5f7661756c7400000000000000000000000000000000000000000081525060006107d8565b6001600160a01b0316856001600160a01b031614155b6108ad5760405162461bcd60e51b81526004016103f99060208082526004908201527f563a746f00000000000000000000000000000000000000000000000000000000604082015260600190565b8234116108fc5760405162461bcd60e51b815260206004820152600a60248201527f563a6d736756616c75650000000000000000000000000000000000000000000060448201526064016103f9565b61098b604051806101a001604052806000815260200160006001600160a01b03168152602001600081526020016000815260200160006001600160a01b0316815260200160006001600160a01b0316815260200160006001600160a01b031681526020016000815260200160008152602001600081526020016000815260200160608152602001606081525090565b606081018790523360808201526001600160a01b03861660a0820152610140810185905261012081018490526109c18434613001565b60e08201526001600160a01b03831660c0820152610180810182905261010081015115610a305760405162461bcd60e51b815260206004820152600b60248201527f563a63616c6c56616c756500000000000000000000000000000000000000000060448201526064016103f9565b6000610a726040518060400160405280600681526020017f6272696467650000000000000000000000000000000000000000000000000000815250600061064a565b6001600160a01b03166396e1785234846040518363ffffffff1660e01b8152600401610a9e919061303f565b6020604051808303818588803b158015610ab757600080fd5b505af1158015610acb573d6000803e3d6000fd5b50505050506040513d601f19601f82011682018060405250810190610af09190613139565b90508160a001516001600160a01b031682608001516001600160a01b0316827fe2f39179c279514a7b46983846e33f95a561128e0660602a211cc1e61cddb9bd8b8660e00151604051610b4d929190918252602082015260400190565b60405180910390a45050610b6060018055565b505050505050565b610b70611f16565b610b7a6000611f70565b565b610b84611c73565b6000610b9660a0850160808601612c88565b6001600160a01b03161415610bed5760405162461bcd60e51b815260206004820152600760248201527f423a6f776e65720000000000000000000000000000000000000000000000000060448201526064016103f9565b46836040013514610c405760405162461bcd60e51b815260206004820152600c60248201527f423a737263436861696e4964000000000000000000000000000000000000000060448201526064016103f9565b6000610c826040518060400160405280600681526020017f6272696467650000000000000000000000000000000000000000000000000000815250600061064a565b90506000816001600160a01b0316635817b0c3866040518263ffffffff1660e01b8152600401610cb291906131e8565b60206040518083038186803b158015610cca57600080fd5b505afa158015610cde573d6000803e3d6000fd5b505050506040513d601f19601f82011682018060405250810190610d029190613139565b600081815260cc6020526040902080546001909101549192506001600160a01b03169081610d725760405162461bcd60e51b815260206004820152600f60248201527f423a455243323052656c6561736564000000000000000000000000000000000060448201526064016103f9565b6040517fce70f39b0000000000000000000000000000000000000000000000000000000081526001600160a01b0385169063ce70f39b90610dc190869060608c0135908b908b906004016132fb565b60206040518083038186803b158015610dd957600080fd5b505afa158015610ded573d6000803e3d6000fd5b505050506040513d601f19601f82011682018060405250810190610e11919061331b565b610e5d5760405162461bcd60e51b815260206004820152600b60248201527f563a6e6f744661696c656400000000000000000000000000000000000000000060448201526064016103f9565b6040805180820182526000808252602080830182815287835260cc909152929020905181547fffffffffffffffffffffffff0000000000000000000000000000000000000000166001600160a01b0390911617815590516001909101558015610fa1576001600160a01b038216600090815260c9602052604090205460ff1615610f7d576001600160a01b0382166342e91bb3610f0060a08a0160808b01612c88565b6040517fffffffff0000000000000000000000000000000000000000000000000000000060e084901b1681526001600160a01b03909116600482015260248101849052604401600060405180830381600087803b158015610f6057600080fd5b505af1158015610f74573d6000803e3d6000fd5b50505050610fa1565b610fa1610f9060a0890160808a01612c88565b6001600160a01b0384169083611ccd565b610fb160a0880160808901612c88565b6001600160a01b0316837fc5d9f7cd7998e24ecf12ad69eca9339764e2cb13788d5d9616f502601b219af684846040516110009291906001600160a01b03929092168252602082015260400190565b60405180910390a35050505061101560018055565b505050565b60ca6020526000908152604090208054600182015460028301805492936001600160a01b038316937401000000000000000000000000000000000000000090930460ff169290919061106b90613338565b80601f016020809104026020016040519081016040528092919081815260200182805461109790613338565b80156110e45780601f106110b9576101008083540402835291602001916110e4565b820191906000526020600020905b8154815290600101906020018083116110c757829003601f168201915b5050505050908060030180546110f990613338565b80601f016020809104026020016040519081016040528092919081815260200182805461112590613338565b80156111725780601f1061114757610100808354040283529160200191611172565b820191906000526020600020905b81548152906001019060200180831161115557829003601f168201915b5050505050905085565b611184611c73565b6001600160a01b038716158015906111ee57506111d8886040518060400160405280600b81526020017f746f6b656e5f7661756c7400000000000000000000000000000000000000000081525060006107d8565b6001600160a01b0316876001600160a01b031614155b61123c5760405162461bcd60e51b81526004016103f99060208082526004908201527f563a746f00000000000000000000000000000000000000000000000000000000604082015260600190565b6001600160a01b0386166112925760405162461bcd60e51b815260206004820152600760248201527f563a746f6b656e0000000000000000000000000000000000000000000000000060448201526064016103f9565b600085116112e25760405162461bcd60e51b815260206004820152600860248201527f563a616d6f756e7400000000000000000000000000000000000000000000000060448201526064016103f9565b6040805160a08101825260008082526020820181905291810191909152606080820181905260808201526001600160a01b038716600090815260c9602052604081205460ff1615611592576040517f77be18a8000000000000000000000000000000000000000000000000000000008152336004820152602481018890526001600160a01b038916906377be18a890604401600060405180830381600087803b15801561138e57600080fd5b505af11580156113a2573d6000803e3d6000fd5b505050506001600160a01b03888116600090815260ca6020908152604091829020825160a081018452815481526001820154948516928101929092527401000000000000000000000000000000000000000090930460ff169181019190915260028201805491929160608401919061141990613338565b80601f016020809104026020016040519081016040528092919081815260200182805461144590613338565b80156114925780601f1061146757610100808354040283529160200191611492565b820191906000526020600020905b81548152906001019060200180831161147557829003601f168201915b505050505081526020016003820180546114ab90613338565b80601f01602080910402602001604051908101604052809291908181526020018280546114d790613338565b80156115245780601f106114f957610100808354040283529160200191611524565b820191906000526020600020905b81548152906001019060200180831161150757829003601f168201915b5050509190925250505060208101519092506001600160a01b031661158b5760405162461bcd60e51b815260206004820152601060248201527f563a63616e6f6e6963616c546f6b656e0000000000000000000000000000000060448201526064016103f9565b508561186f565b60008890506040518060a001604052804681526020018a6001600160a01b03168152602001826001600160a01b031663313ce5676040518163ffffffff1660e01b815260040160206040518083038186803b1580156115f057600080fd5b505afa158015611604573d6000803e3d6000fd5b505050506040513d601f19601f82011682018060405250810190611628919061339b565b60ff168152602001826001600160a01b03166395d89b416040518163ffffffff1660e01b815260040160006040518083038186803b15801561166957600080fd5b505afa15801561167d573d6000803e3d6000fd5b505050506040513d6000823e601f3d908101601f191682016040526116a591908101906133b8565b8152602001826001600160a01b03166306fdde036040518163ffffffff1660e01b815260040160006040518083038186803b1580156116e357600080fd5b505afa1580156116f7573d6000803e3d6000fd5b505050506040513d6000823e601f3d908101601f1916820160405261171f91908101906133b8565b90526040517f70a082310000000000000000000000000000000000000000000000000000000081523060048201529093506000906001600160a01b038316906370a082319060240160206040518083038186803b15801561177f57600080fd5b505afa158015611793573d6000803e3d6000fd5b505050506040513d601f19601f820116820180604052508101906117b79190613139565b90506117ce6001600160a01b03831633308c611fda565b6040517f70a0823100000000000000000000000000000000000000000000000000000000815230600482015281906001600160a01b038416906370a082319060240160206040518083038186803b15801561182857600080fd5b505afa15801561183c573d6000803e3d6000fd5b505050506040513d601f19601f820116820180604052508101906118609190613139565b61186a9190613001565b925050505b6118fe604051806101a001604052806000815260200160006001600160a01b03168152602001600081526020016000815260200160006001600160a01b0316815260200160006001600160a01b0316815260200160006001600160a01b031681526020016000815260200160008152602001600081526020016000815260200160608152602001606081525090565b606081018b905233608082015260408051808201909152600b81527f746f6b656e5f7661756c74000000000000000000000000000000000000000000602082015261194c908c9060006107d8565b6001600160a01b031660a082015260808101516040517f0c6fab820000000000000000000000000000000000000000000000000000000091611997918691908e90879060240161342f565b60408051601f198184030181529190526020810180517bffffffffffffffffffffffffffffffffffffffffffffffffffffffff167fffffffff000000000000000000000000000000000000000000000000000000009093169290921790915261016082015261014081018790526101208101869052611a168634613001565b60e08201526001600160a01b03851660c0820152610180810184905260408051808201909152600681527f62726964676500000000000000000000000000000000000000000000000000006020820152600090611a73908261064a565b6001600160a01b03166396e1785234846040518363ffffffff1660e01b8152600401611a9f919061303f565b6020604051808303818588803b158015611ab857600080fd5b505af1158015611acc573d6000803e3d6000fd5b50505050506040513d601f19601f82011682018060405250810190611af19190613139565b905060405180604001604052808b6001600160a01b031681526020018481525060cc600083815260200190815260200160002060008201518160000160006101000a8154816001600160a01b0302191690836001600160a01b03160217905550602082015181600101559050508a6001600160a01b031682608001516001600160a01b0316827f325cab7553038374e17f39bb45e2a2c90f66c6a52798cb5f95c20d94c11c95e28f8e88604051611bc4939291909283526001600160a01b03919091166020830152604082015260600190565b60405180910390a450505050611bd960018055565b5050505050505050565b611beb611f16565b6001600160a01b038116611c675760405162461bcd60e51b815260206004820152602660248201527f4f776e61626c653a206e6577206f776e657220697320746865207a65726f206160448201527f646472657373000000000000000000000000000000000000000000000000000060648201526084016103f9565b611c7081611f70565b50565b60026001541415611cc65760405162461bcd60e51b815260206004820152601f60248201527f5265656e7472616e637947756172643a207265656e7472616e742063616c6c0060448201526064016103f9565b6002600155565b6040516001600160a01b0383166024820152604481018290526110159084907fa9059cbb00000000000000000000000000000000000000000000000000000000906064015b60408051601f198184030181529190526020810180517bffffffffffffffffffffffffffffffffffffffffffffffffffffffff167fffffffff000000000000000000000000000000000000000000000000000000009093169290921790915261202b565b8035600090815260cb60209081526040808320839290918391611d9d918701908701612c88565b6001600160a01b03908116825260208201929092526040016000205416905080611dcf57611dca83612110565b610657565b92915050565b60018055565b600080611de7856123cd565b84604051602001611df99291906134e6565b60408051601f19818403018152908290526097547fbf40fac10000000000000000000000000000000000000000000000000000000083529092506001600160a01b03169063bf40fac190611e5190849060040161353e565b60206040518083038186803b158015611e6957600080fd5b505afa158015611e7d573d6000803e3d6000fd5b505050506040513d601f19601f82011682018060405250810190611ea19190613551565b915082611ef5576040516001600160a01b038316151590611ec690839060200161356e565b60405160208183030381529060405290611ef35760405162461bcd60e51b81526004016103f9919061353e565b505b509392505050565b611f0561248d565b611f0d612512565b611c7081612597565b6065546001600160a01b03163314610b7a5760405162461bcd60e51b815260206004820181905260248201527f4f776e61626c653a2063616c6c6572206973206e6f7420746865206f776e657260448201526064016103f9565b606580546001600160a01b038381167fffffffffffffffffffffffff0000000000000000000000000000000000000000831681179093556040519116919082907f8be0079c531659141344cd1fd0a4f28419497f9722a3daafe3b4186f6b6457e090600090a35050565b6040516001600160a01b03808516602483015283166044820152606481018290526106449085907f23b872dd0000000000000000000000000000000000000000000000000000000090608401611d12565b6000612080826040518060400160405280602081526020017f5361666545524332303a206c6f772d6c6576656c2063616c6c206661696c6564815250856001600160a01b03166126279092919063ffffffff16565b805190915015611015578080602001905181019061209e919061331b565b6110155760405162461bcd60e51b815260206004820152602a60248201527f5361666545524332303a204552433230206f7065726174696f6e20646964206e60448201527f6f7420737563636565640000000000000000000000000000000000000000000060648201526084016103f9565b60008082356121256040850160208601612c88565b60405160200161216492919091825260601b7fffffffffffffffffffffffffffffffffffffffff00000000000000000000000016602082015260340190565b6040516020818303038152906040528051906020012090506121aa6000826040518060200161219290612aa9565b601f1982820381018352601f90910116604052612636565b6097549092506001600160a01b0380841691636c0db62b91166121d36040870160208801612c88565b86356121e56060890160408a016135b3565b6121f260608a018a6135d0565b6121ff60808c018c6135d0565b6040516122139291908e3590602001613635565b6040516020818303038152906040526040518863ffffffff1660e01b815260040161224497969594939291906136b8565b600060405180830381600087803b15801561225e57600080fd5b505af1158015612272573d6000803e3d6000fd5b5050506001600160a01b038316600090815260c96020908152604080832080547fffffffffffffffffffffffffffffffffffffffffffffffffffffffffffffff0016600117905560ca90915290208491506122cd8282613857565b50508235600090815260cb602090815260408083208593909290916122f791908801908801612c88565b6001600160a01b03166001600160a01b0316815260200190815260200160002060006101000a8154816001600160a01b0302191690836001600160a01b03160217905550816001600160a01b03168360200160208101906123589190612c88565b6001600160a01b031684357f9e465b29e576a3e01584e31d607353f21b80c055e813af907c0a495f6cf4f7bc61239160608801886135d0565b61239e60808a018a6135d0565b6123ae60608c0160408d016135b3565b6040516123bf95949392919061392f565b60405180910390a450919050565b606060006123da83612737565b600101905060008167ffffffffffffffff8111156123fa576123fa612b4a565b6040519080825280601f01601f191660200182016040528015612424576020820181803683370190505b5090508181016020015b7fffffffffffffffffffffffffffffffffffffffffffffffffffffffffffffffff017f3031323334353637383961626364656600000000000000000000000000000000600a86061a8153600a850494508461248857611ef5565b61242e565b600054610100900460ff1661250a5760405162461bcd60e51b815260206004820152602b60248201527f496e697469616c697a61626c653a20636f6e7472616374206973206e6f74206960448201527f6e697469616c697a696e6700000000000000000000000000000000000000000060648201526084016103f9565b610b7a612819565b600054610100900460ff1661258f5760405162461bcd60e51b815260206004820152602b60248201527f496e697469616c697a61626c653a20636f6e7472616374206973206e6f74206960448201527f6e697469616c697a696e6700000000000000000000000000000000000000000060648201526084016103f9565b610b7a612896565b6001600160a01b0381166125ed5760405162461bcd60e51b815260206004820152600e60248201527f41523a7a65726f4164647265737300000000000000000000000000000000000060448201526064016103f9565b609780547fffffffffffffffffffffffff0000000000000000000000000000000000000000166001600160a01b0392909216919091179055565b60606107e5848460008561291c565b6000834710156126885760405162461bcd60e51b815260206004820152601d60248201527f437265617465323a20696e73756666696369656e742062616c616e636500000060448201526064016103f9565b81516126d65760405162461bcd60e51b815260206004820181905260248201527f437265617465323a2062797465636f6465206c656e677468206973207a65726f60448201526064016103f9565b8282516020840186f590506001600160a01b0381166106575760405162461bcd60e51b815260206004820152601960248201527f437265617465323a204661696c6564206f6e206465706c6f790000000000000060448201526064016103f9565b6000807a184f03e93ff9f4daa797ed6e38ed64bf6a1f0100000000000000008310612780577a184f03e93ff9f4daa797ed6e38ed64bf6a1f010000000000000000830492506040015b6d04ee2d6d415b85acef810000000083106127ac576d04ee2d6d415b85acef8100000000830492506020015b662386f26fc1000083106127ca57662386f26fc10000830492506010015b6305f5e10083106127e2576305f5e100830492506008015b61271083106127f657612710830492506004015b60648310612808576064830492506002015b600a8310611dcf5760010192915050565b600054610100900460ff16611dd55760405162461bcd60e51b815260206004820152602b60248201527f496e697469616c697a61626c653a20636f6e7472616374206973206e6f74206960448201527f6e697469616c697a696e6700000000000000000000000000000000000000000060648201526084016103f9565b600054610100900460ff166129135760405162461bcd60e51b815260206004820152602b60248201527f496e697469616c697a61626c653a20636f6e7472616374206973206e6f74206960448201527f6e697469616c697a696e6700000000000000000000000000000000000000000060648201526084016103f9565b610b7a33611f70565b6060824710156129945760405162461bcd60e51b815260206004820152602660248201527f416464726573733a20696e73756666696369656e742062616c616e636520666f60448201527f722063616c6c000000000000000000000000000000000000000000000000000060648201526084016103f9565b600080866001600160a01b031685876040516129b0919061396c565b60006040518083038185875af1925050503d80600081146129ed576040519150601f19603f3d011682016040523d82523d6000602084013e6129f2565b606091505b5091509150612a0387838387612a0e565b979650505050505050565b60608315612a7a578251612a73576001600160a01b0385163b612a735760405162461bcd60e51b815260206004820152601d60248201527f416464726573733a2063616c6c20746f206e6f6e2d636f6e747261637400000060448201526064016103f9565b50816107e5565b6107e58383815115612a8f5781518083602001fd5b8060405162461bcd60e51b81526004016103f9919061353e565b6121428061398983390190565b6001600160a01b0381168114611c7057600080fd5b8035612ad681612ab6565b919050565b60008060008060808587031215612af157600080fd5b843567ffffffffffffffff811115612b0857600080fd5b850160a08188031215612b1a57600080fd5b93506020850135612b2a81612ab6565b92506040850135612b3a81612ab6565b9396929550929360600135925050565b7f4e487b7100000000000000000000000000000000000000000000000000000000600052604160045260246000fd5b604051601f8201601f1916810167ffffffffffffffff81118282101715612ba257612ba2612b4a565b604052919050565b600067ffffffffffffffff821115612bc457612bc4612b4a565b50601f01601f191660200190565b600082601f830112612be357600080fd5b8135612bf6612bf182612baa565b612b79565b818152846020838601011115612c0b57600080fd5b816020850160208301376000918101602001919091529392505050565b8015158114611c7057600080fd5b60008060408385031215612c4957600080fd5b823567ffffffffffffffff811115612c6057600080fd5b612c6c85828601612bd2565b9250506020830135612c7d81612c28565b809150509250929050565b600060208284031215612c9a57600080fd5b813561065781612ab6565b600080600060608486031215612cba57600080fd5b83359250602084013567ffffffffffffffff811115612cd857600080fd5b612ce486828701612bd2565b9250506040840135612cf581612c28565b809150509250925092565b60008060008060008060c08789031215612d1957600080fd5b863595506020870135612d2b81612ab6565b945060408701359350606087013592506080870135612d4981612ab6565b915060a087013567ffffffffffffffff811115612d6557600080fd5b612d7189828a01612bd2565b9150509295509295509295565b60008060408385031215612d9157600080fd5b823591506020830135612c7d81612ab6565b600060208284031215612db557600080fd5b5035919050565b600080600060408486031215612dd157600080fd5b833567ffffffffffffffff80821115612de957600080fd5b908501906101a08288031215612dfe57600080fd5b90935060208501359080821115612e1457600080fd5b818601915086601f830112612e2857600080fd5b813581811115612e3757600080fd5b876020828501011115612e4957600080fd5b6020830194508093505050509250925092565b60005b83811015612e77578181015183820152602001612e5f565b838111156106445750506000910152565b60008151808452612ea0816020860160208601612e5c565b601f01601f19169290920160200192915050565b8581526001600160a01b038516602082015260ff8416604082015260a060608201526000612ee560a0830185612e88565b8281036080840152612ef78185612e88565b98975050505050505050565b600080600080600080600080610100898b031215612f2057600080fd5b883597506020890135612f3281612ab6565b96506040890135612f4281612ab6565b9550606089013594506080890135935060a0890135925060c0890135612f6781612ab6565b915060e089013567ffffffffffffffff811115612f8357600080fd5b612f8f8b828c01612bd2565b9150509295985092959890939650565b600060608284031215612fb157600080fd5b6040516060810181811067ffffffffffffffff82111715612fd457612fd4612b4a565b604052825181526020830151612fe981612ab6565b60208201526040928301519281019290925250919050565b60008282101561303a577f4e487b7100000000000000000000000000000000000000000000000000000000600052601160045260246000fd5b500390565b60208152815160208201526000602083015161306660408401826001600160a01b03169052565b506040830151606083015260608301516080830152608083015161309560a08401826001600160a01b03169052565b5060a08301516001600160a01b03811660c08401525060c08301516001600160a01b03811660e08401525060e0830151610100838101919091528301516101208084019190915283015161014080840191909152830151610160808401919091528301516101a06101808085018290526131136101c0860184612e88565b90860151858203601f19018387015290925061312f8382612e88565b9695505050505050565b60006020828403121561314b57600080fd5b5051919050565b60008083357fffffffffffffffffffffffffffffffffffffffffffffffffffffffffffffffe184360301811261318757600080fd5b830160208101925035905067ffffffffffffffff8111156131a757600080fd5b8036038313156131b657600080fd5b9250929050565b818352818160208501375060006020828401015260006020601f19601f840116840101905092915050565b6020815281356020820152600061320160208401612acb565b6001600160a01b038116604084015250604083013560608301526060830135608083015261323160808401612acb565b6001600160a01b03811660a08401525061324d60a08401612acb565b6001600160a01b03811660c08401525061326960c08401612acb565b6001600160a01b03811660e08401525061010060e0840135818401526101208185013581850152610140915080850135828501525061016081850135818501526132b581860186613152565b925090506101a061018081818701526132d36101c0870185856131bd565b93506132e181880188613152565b93509050601f198685030182870152612a038484836131bd565b84815283602082015260606040820152600061312f6060830184866131bd565b60006020828403121561332d57600080fd5b815161065781612c28565b600181811c9082168061334c57607f821691505b60208210811415613386577f4e487b7100000000000000000000000000000000000000000000000000000000600052602260045260246000fd5b50919050565b60ff81168114611c7057600080fd5b6000602082840312156133ad57600080fd5b81516106578161338c565b6000602082840312156133ca57600080fd5b815167ffffffffffffffff8111156133e157600080fd5b8201601f810184136133f257600080fd5b8051613400612bf182612baa565b81815285602083850101111561341557600080fd5b613426826020830160208601612e5c565b95945050505050565b6080815284516080820152600060208601516001600160a01b0380821660a085015260ff60408901511660c08501526060880151915060a060e085015261347a610120850183612e88565b915060808801517fffffffffffffffffffffffffffffffffffffffffffffffffffffffffffffff80858403016101008601526134b68382612e88565b9188166020860152506001600160a01b038616604085015291506134d79050565b82606083015295945050505050565b600083516134f8818460208801612e5c565b7f2e000000000000000000000000000000000000000000000000000000000000009083019081528351613532816001840160208801612e5c565b01600101949350505050565b6020815260006106576020830184612e88565b60006020828403121561356357600080fd5b815161065781612ab6565b7f41523a7a65726f416464723a00000000000000000000000000000000000000008152600082516135a681600c850160208701612e5c565b91909101600c0192915050565b6000602082840312156135c557600080fd5b81356106578161338c565b60008083357fffffffffffffffffffffffffffffffffffffffffffffffffffffffffffffffe184360301811261360557600080fd5b83018035915067ffffffffffffffff82111561362057600080fd5b6020019150368190038213156131b657600080fd5b828482377f286272696467656400000000000000000000000000000000000000000000000092019182527ff09f8c88000000000000000000000000000000000000000000000000000000006008830152600c8201527f2900000000000000000000000000000000000000000000000000000000000000602c820152602d01919050565b60006001600160a01b03808a16835280891660208401525086604083015260ff8616606083015260c060808301526136f460c0830185876131bd565b82810360a08401526137068185612e88565b9a9950505050505050505050565b601f82111561101557600081815260208120601f850160051c8101602086101561373b5750805b601f850160051c820191505b81811015610b6057828155600101613747565b67ffffffffffffffff83111561377257613772612b4a565b613786836137808354613338565b83613714565b6000601f8411600181146137d857600085156137a25750838201355b7fffffffffffffffffffffffffffffffffffffffffffffffffffffffffffffffff600387901b1c1916600186901b178355613850565b600083815260209020601f19861690835b8281101561380957868501358255602094850194600190920191016137e9565b5086821015613844577fffffffffffffffffffffffffffffffffffffffffffffffffffffffffffffffff60f88860031b161c19848701351681555b505060018560011b0183555b5050505050565b8135815560018101602083013561386d81612ab6565b6001600160a01b03811690508154817fffffffffffffffffffffffff0000000000000000000000000000000000000000821617835560408501356138b08161338c565b74ff00000000000000000000000000000000000000008160a01b16837fffffffffffffffffffffff0000000000000000000000000000000000000000008416171784555050505061390460608301836135d0565b61391281836002860161375a565b505061392160808301836135d0565b61064481836003860161375a565b6060815260006139436060830187896131bd565b82810360208401526139568186886131bd565b91505060ff831660408301529695505050505050565b6000825161397e818460208701612e5c565b919091019291505056fe608060405234801561001057600080fd5b50612122806100206000396000f3fe608060405234801561001057600080fd5b506004361061018d5760003560e01c806367e828bf116100e35780638da5cb5b1161008c578063a9059cbb11610066578063a9059cbb146103b4578063dd62ed3e146103c7578063f2fde38b1461040d57600080fd5b80638da5cb5b1461037b57806395d89b4114610399578063a457c2d7146103a157600080fd5b8063715018a6116100bd578063715018a61461034057806377be18a8146103485780637cf8ed0d1461035b57600080fd5b806367e828bf146102a75780636c0db62b146102f757806370a082311461030a57600080fd5b806323b872dd116101455780633ab76e9f1161011f5780633ab76e9f1461026b57806342e91bb31461028957806349d126051461029e57600080fd5b806323b872dd14610230578063313ce56714610243578063395093511461025857600080fd5b80630ca4dffd116101765780630ca4dffd146101d357806318160ddd1461020b5780631be2bfa71461021d57600080fd5b806306fdde0314610192578063095ea7b3146101b0575b600080fd5b61019a610420565b6040516101a79190611c0c565b60405180910390f35b6101c36101be366004611c7f565b6104b2565b60405190151581526020016101a7565b6101e66101e1366004611d9a565b6104ca565b60405173ffffffffffffffffffffffffffffffffffffffff90911681526020016101a7565b60cb545b6040519081526020016101a7565b6101e661022b366004611de8565b6104de565b6101c361023e366004611e3f565b6104f3565b60ce5460405160ff90911681526020016101a7565b6101c3610266366004611c7f565b61056b565b60975473ffffffffffffffffffffffffffffffffffffffff166101e6565b61029c610297366004611c7f565b6105b7565b005b61020f60fc5481565b6102cb60fb5460fc5473ffffffffffffffffffffffffffffffffffffffff90911691565b6040805173ffffffffffffffffffffffffffffffffffffffff90931683526020830191909152016101a7565b61029c610305366004611e80565b6106d1565b61020f610318366004611f2a565b73ffffffffffffffffffffffffffffffffffffffff16600090815260c9602052604090205490565b61029c610936565b61029c610356366004611c7f565b61094a565b60fb546101e69073ffffffffffffffffffffffffffffffffffffffff1681565b60655473ffffffffffffffffffffffffffffffffffffffff166101e6565b61019a610a57565b6101c36103af366004611c7f565b610a66565b6101c36103c2366004611c7f565b610b28565b61020f6103d5366004611f47565b73ffffffffffffffffffffffffffffffffffffffff918216600090815260ca6020908152604080832093909416825291909152205490565b61029c61041b366004611f2a565b610b9a565b606060cc805461042f90611f80565b80601f016020809104026020016040519081016040528092919081815260200182805461045b90611f80565b80156104a85780601f1061047d576101008083540402835291602001916104a8565b820191906000526020600020905b81548152906001019060200180831161048b57829003601f168201915b5050505050905090565b6000336104c0818585610c37565b5060019392505050565b60006104d7468484610db6565b9392505050565b60006104eb848484610db6565b949350505050565b600073ffffffffffffffffffffffffffffffffffffffff83163014156105605760405162461bcd60e51b815260206004820152600560248201527f42453a746f00000000000000000000000000000000000000000000000000000060448201526064015b60405180910390fd5b6104eb848484610f10565b33600081815260ca6020908152604080832073ffffffffffffffffffffffffffffffffffffffff871684529091528120549091906104c090829086906105b2908790612003565b610c37565b6040518060400160405280600b81526020017f746f6b656e5f7661756c740000000000000000000000000000000000000000008152506105f88160006104ca565b73ffffffffffffffffffffffffffffffffffffffff163373ffffffffffffffffffffffffffffffffffffffff16146106725760405162461bcd60e51b815260206004820152600960248201527f41523a64656e69656400000000000000000000000000000000000000000000006044820152606401610557565b61067c8383610f29565b8273ffffffffffffffffffffffffffffffffffffffff167f397b33b307fc137878ebfc75b295289ec0ee25a31bb5bf034f33256fe8ea2aa6836040516106c491815260200190565b60405180910390a2505050565b600054610100900460ff16158080156106f15750600054600160ff909116105b8061070b5750303b15801561070b575060005460ff166001145b61077d5760405162461bcd60e51b815260206004820152602e60248201527f496e697469616c697a61626c653a20636f6e747261637420697320616c72656160448201527f647920696e697469616c697a65640000000000000000000000000000000000006064820152608401610557565b600080547fffffffffffffffffffffffffffffffffffffffffffffffffffffffffffffff0016600117905580156107db57600080547fffffffffffffffffffffffffffffffffffffffffffffffffffffffffffff00ff166101001790555b73ffffffffffffffffffffffffffffffffffffffff8616158015906107ff57508415155b801561080b5750468514155b8015610818575060008351115b8015610825575060008251115b6108715760405162461bcd60e51b815260206004820152600960248201527f42453a706172616d7300000000000000000000000000000000000000000000006044820152606401610557565b61087a87610fe7565b610885828486611000565b60fb80547fffffffffffffffffffffffff00000000000000000000000000000000000000001673ffffffffffffffffffffffffffffffffffffffff881617905560fc859055801561092d57600080547fffffffffffffffffffffffffffffffffffffffffffffffffffffffffffff00ff169055604051600181527f7f26b83ff96e1f2b6a682f133852f6798a09c465da95921460cefb38474024989060200160405180910390a15b50505050505050565b61093e61108d565b61094860006110f4565b565b6040518060400160405280600b81526020017f746f6b656e5f7661756c7400000000000000000000000000000000000000000081525061098b8160006104ca565b73ffffffffffffffffffffffffffffffffffffffff163373ffffffffffffffffffffffffffffffffffffffff1614610a055760405162461bcd60e51b815260206004820152600960248201527f41523a64656e69656400000000000000000000000000000000000000000000006044820152606401610557565b610a0f838361116b565b8273ffffffffffffffffffffffffffffffffffffffff167f9b5b9a05e4726d8bb959f1440e05c6b8109443f2083bc4e386237d7654526553836040516106c491815260200190565b606060cd805461042f90611f80565b33600081815260ca6020908152604080832073ffffffffffffffffffffffffffffffffffffffff8716845290915281205490919083811015610b105760405162461bcd60e51b815260206004820152602560248201527f45524332303a2064656372656173656420616c6c6f77616e63652062656c6f7760448201527f207a65726f0000000000000000000000000000000000000000000000000000006064820152608401610557565b610b1d8286868403610c37565b506001949350505050565b600073ffffffffffffffffffffffffffffffffffffffff8316301415610b905760405162461bcd60e51b815260206004820152600560248201527f42453a746f0000000000000000000000000000000000000000000000000000006044820152606401610557565b6104d783836112dc565b610ba261108d565b73ffffffffffffffffffffffffffffffffffffffff8116610c2b5760405162461bcd60e51b815260206004820152602660248201527f4f776e61626c653a206e6577206f776e657220697320746865207a65726f206160448201527f64647265737300000000000000000000000000000000000000000000000000006064820152608401610557565b610c34816110f4565b50565b73ffffffffffffffffffffffffffffffffffffffff8316610cbf5760405162461bcd60e51b8152602060048201526024808201527f45524332303a20617070726f76652066726f6d20746865207a65726f2061646460448201527f72657373000000000000000000000000000000000000000000000000000000006064820152608401610557565b73ffffffffffffffffffffffffffffffffffffffff8216610d485760405162461bcd60e51b815260206004820152602260248201527f45524332303a20617070726f766520746f20746865207a65726f20616464726560448201527f73730000000000000000000000000000000000000000000000000000000000006064820152608401610557565b73ffffffffffffffffffffffffffffffffffffffff838116600081815260ca602090815260408083209487168084529482529182902085905590518481527f8c5be1e5ebec7d5bd14f71427d1e84f3dd0314c0f7b2291e5b200ac8c7c3b925910160405180910390a3505050565b600080610dc2856112ea565b84604051602001610dd492919061201b565b604080517fffffffffffffffffffffffffffffffffffffffffffffffffffffffffffffffe0818403018152908290526097547fbf40fac100000000000000000000000000000000000000000000000000000000835290925073ffffffffffffffffffffffffffffffffffffffff169063bf40fac190610e57908490600401611c0c565b60206040518083038186803b158015610e6f57600080fd5b505afa158015610e83573d6000803e3d6000fd5b505050506040513d601f19601f82011682018060405250810190610ea79190612073565b915082610f085760405173ffffffffffffffffffffffffffffffffffffffff8316151590610ed9908390602001612090565b60405160208183030381529060405290610f065760405162461bcd60e51b81526004016105579190611c0c565b505b509392505050565b600033610f1e8582856113aa565b610b1d858585611467565b73ffffffffffffffffffffffffffffffffffffffff8216610f8c5760405162461bcd60e51b815260206004820152601f60248201527f45524332303a206d696e7420746f20746865207a65726f2061646472657373006044820152606401610557565b8060cb6000828254610f9e9190612003565b909155505073ffffffffffffffffffffffffffffffffffffffff8216600090815260c9602052604081208054839290610fd8908490612003565b90915550610fe39050565b5050565b610fef6116cc565b610ff7611751565b610c34816117d6565b600054610100900460ff1661107d5760405162461bcd60e51b815260206004820152602b60248201527f496e697469616c697a61626c653a20636f6e7472616374206973206e6f74206960448201527f6e697469616c697a696e670000000000000000000000000000000000000000006064820152608401610557565b611088838383611880565b505050565b60655473ffffffffffffffffffffffffffffffffffffffff1633146109485760405162461bcd60e51b815260206004820181905260248201527f4f776e61626c653a2063616c6c6572206973206e6f7420746865206f776e65726044820152606401610557565b6065805473ffffffffffffffffffffffffffffffffffffffff8381167fffffffffffffffffffffffff0000000000000000000000000000000000000000831681179093556040519116919082907f8be0079c531659141344cd1fd0a4f28419497f9722a3daafe3b4186f6b6457e090600090a35050565b73ffffffffffffffffffffffffffffffffffffffff82166111f45760405162461bcd60e51b815260206004820152602160248201527f45524332303a206275726e2066726f6d20746865207a65726f2061646472657360448201527f73000000000000000000000000000000000000000000000000000000000000006064820152608401610557565b73ffffffffffffffffffffffffffffffffffffffff8216600090815260c96020526040902054818110156112905760405162461bcd60e51b815260206004820152602260248201527f45524332303a206275726e20616d6f756e7420657863656564732062616c616e60448201527f63650000000000000000000000000000000000000000000000000000000000006064820152608401610557565b73ffffffffffffffffffffffffffffffffffffffff8316600090815260c960205260408120838303905560cb80548492906112cc9084906120d5565b9091555061108890508360008483565b6000336104c0818585611467565b606060006112f78361195b565b600101905060008167ffffffffffffffff81111561131757611317611cab565b6040519080825280601f01601f191660200182016040528015611341576020820181803683370190505b5090508181016020015b7fffffffffffffffffffffffffffffffffffffffffffffffffffffffffffffffff017f3031323334353637383961626364656600000000000000000000000000000000600a86061a8153600a85049450846113a557610f08565b61134b565b73ffffffffffffffffffffffffffffffffffffffff838116600090815260ca60209081526040808320938616835292905220547fffffffffffffffffffffffffffffffffffffffffffffffffffffffffffffffff811461146157818110156114545760405162461bcd60e51b815260206004820152601d60248201527f45524332303a20696e73756666696369656e7420616c6c6f77616e63650000006044820152606401610557565b6114618484848403610c37565b50505050565b73ffffffffffffffffffffffffffffffffffffffff83166114f05760405162461bcd60e51b815260206004820152602560248201527f45524332303a207472616e736665722066726f6d20746865207a65726f20616460448201527f64726573730000000000000000000000000000000000000000000000000000006064820152608401610557565b73ffffffffffffffffffffffffffffffffffffffff82166115795760405162461bcd60e51b815260206004820152602360248201527f45524332303a207472616e7366657220746f20746865207a65726f206164647260448201527f65737300000000000000000000000000000000000000000000000000000000006064820152608401610557565b73ffffffffffffffffffffffffffffffffffffffff8316600090815260c96020526040902054818110156116155760405162461bcd60e51b815260206004820152602660248201527f45524332303a207472616e7366657220616d6f756e742065786365656473206260448201527f616c616e636500000000000000000000000000000000000000000000000000006064820152608401610557565b73ffffffffffffffffffffffffffffffffffffffff808516600090815260c96020526040808220858503905591851681529081208054849290611659908490612003565b925050819055508273ffffffffffffffffffffffffffffffffffffffff168473ffffffffffffffffffffffffffffffffffffffff167fddf252ad1be2c89b69c2b068fc378daa952ba7f163c4a11628f55a4df523b3ef846040516116bf91815260200190565b60405180910390a3611461565b600054610100900460ff166117495760405162461bcd60e51b815260206004820152602b60248201527f496e697469616c697a61626c653a20636f6e7472616374206973206e6f74206960448201527f6e697469616c697a696e670000000000000000000000000000000000000000006064820152608401610557565b610948611a3e565b600054610100900460ff166117ce5760405162461bcd60e51b815260206004820152602b60248201527f496e697469616c697a61626c653a20636f6e7472616374206973206e6f74206960448201527f6e697469616c697a696e670000000000000000000000000000000000000000006064820152608401610557565b610948611ac1565b73ffffffffffffffffffffffffffffffffffffffff81166118395760405162461bcd60e51b815260206004820152600e60248201527f41523a7a65726f416464726573730000000000000000000000000000000000006044820152606401610557565b609780547fffffffffffffffffffffffff00000000000000000000000000000000000000001673ffffffffffffffffffffffffffffffffffffffff92909216919091179055565b600054610100900460ff166118fd5760405162461bcd60e51b815260206004820152602b60248201527f496e697469616c697a61626c653a20636f6e7472616374206973206e6f74206960448201527f6e697469616c697a696e670000000000000000000000000000000000000000006064820152608401610557565b82516119109060cc906020860190611b47565b5081516119249060cd906020850190611b47565b5060ce80547fffffffffffffffffffffffffffffffffffffffffffffffffffffffffffffff001660ff929092169190911790555050565b6000807a184f03e93ff9f4daa797ed6e38ed64bf6a1f01000000000000000083106119a4577a184f03e93ff9f4daa797ed6e38ed64bf6a1f010000000000000000830492506040015b6d04ee2d6d415b85acef810000000083106119d0576d04ee2d6d415b85acef8100000000830492506020015b662386f26fc1000083106119ee57662386f26fc10000830492506010015b6305f5e1008310611a06576305f5e100830492506008015b6127108310611a1a57612710830492506004015b60648310611a2c576064830492506002015b600a8310611a38576001015b92915050565b600054610100900460ff16611abb5760405162461bcd60e51b815260206004820152602b60248201527f496e697469616c697a61626c653a20636f6e7472616374206973206e6f74206960448201527f6e697469616c697a696e670000000000000000000000000000000000000000006064820152608401610557565b60018055565b600054610100900460ff16611b3e5760405162461bcd60e51b815260206004820152602b60248201527f496e697469616c697a61626c653a20636f6e7472616374206973206e6f74206960448201527f6e697469616c697a696e670000000000000000000000000000000000000000006064820152608401610557565b610948336110f4565b828054611b5390611f80565b90600052602060002090601f016020900481019282611b755760008555611bbb565b82601f10611b8e57805160ff1916838001178555611bbb565b82800160010185558215611bbb579182015b82811115611bbb578251825591602001919060010190611ba0565b50611bc7929150611bcb565b5090565b5b80821115611bc75760008155600101611bcc565b60005b83811015611bfb578181015183820152602001611be3565b838111156114615750506000910152565b6020815260008251806020840152611c2b816040850160208701611be0565b601f017fffffffffffffffffffffffffffffffffffffffffffffffffffffffffffffffe0169190910160400192915050565b73ffffffffffffffffffffffffffffffffffffffff81168114610c3457600080fd5b60008060408385031215611c9257600080fd5b8235611c9d81611c5d565b946020939093013593505050565b7f4e487b7100000000000000000000000000000000000000000000000000000000600052604160045260246000fd5b600082601f830112611ceb57600080fd5b813567ffffffffffffffff80821115611d0657611d06611cab565b604051601f83017fffffffffffffffffffffffffffffffffffffffffffffffffffffffffffffffe0908116603f01168101908282118183101715611d4c57611d4c611cab565b81604052838152866020858801011115611d6557600080fd5b836020870160208301376000602085830101528094505050505092915050565b80358015158114611d9557600080fd5b919050565b60008060408385031215611dad57600080fd5b823567ffffffffffffffff811115611dc457600080fd5b611dd085828601611cda565b925050611ddf60208401611d85565b90509250929050565b600080600060608486031215611dfd57600080fd5b83359250602084013567ffffffffffffffff811115611e1b57600080fd5b611e2786828701611cda565b925050611e3660408501611d85565b90509250925092565b600080600060608486031215611e5457600080fd5b8335611e5f81611c5d565b92506020840135611e6f81611c5d565b929592945050506040919091013590565b60008060008060008060c08789031215611e9957600080fd5b8635611ea481611c5d565b95506020870135611eb481611c5d565b945060408701359350606087013560ff81168114611ed157600080fd5b9250608087013567ffffffffffffffff80821115611eee57600080fd5b611efa8a838b01611cda565b935060a0890135915080821115611f1057600080fd5b50611f1d89828a01611cda565b9150509295509295509295565b600060208284031215611f3c57600080fd5b81356104d781611c5d565b60008060408385031215611f5a57600080fd5b8235611f6581611c5d565b91506020830135611f7581611c5d565b809150509250929050565b600181811c90821680611f9457607f821691505b60208210811415611fce577f4e487b7100000000000000000000000000000000000000000000000000000000600052602260045260246000fd5b50919050565b7f4e487b7100000000000000000000000000000000000000000000000000000000600052601160045260246000fd5b6000821982111561201657612016611fd4565b500190565b6000835161202d818460208801611be0565b7f2e000000000000000000000000000000000000000000000000000000000000009083019081528351612067816001840160208801611be0565b01600101949350505050565b60006020828403121561208557600080fd5b81516104d781611c5d565b7f41523a7a65726f416464723a00000000000000000000000000000000000000008152600082516120c881600c850160208701611be0565b91909101600c0192915050565b6000828210156120e7576120e7611fd4565b50039056fea2646970667358221220846686a022418a8193ff494bc6433f3cd086b3d2ed3d720d9487f8d8a99d8c7464736f6c63430008090033a2646970667358221220287beda8af45b63278b72a73d9c10d1f03636b23be7b40815afa979530d3280764736f6c63430008090033",
  "linkReferences": {},
  "deployedLinkReferences": {}
}